{
  "contractName": "Exchange",
  "abi": [
    {
      "inputs": [
        {
          "internalType": "address",
          "name": "adresa",
          "type": "address"
        }
      ],
      "stateMutability": "nonpayable",
      "type": "constructor"
    },
    {
      "stateMutability": "payable",
      "type": "fallback",
      "payable": true
    },
    {
      "inputs": [],
      "name": "owner",
      "outputs": [
        {
          "internalType": "address",
          "name": "",
          "type": "address"
        }
      ],
      "stateMutability": "view",
      "type": "function",
      "constant": true
    },
    {
      "inputs": [],
      "name": "token",
      "outputs": [
        {
          "internalType": "contract IERC20",
          "name": "",
          "type": "address"
        }
      ],
      "stateMutability": "view",
      "type": "function",
      "constant": true
    },
    {
      "inputs": [
        {
          "internalType": "address",
          "name": "buyer",
          "type": "address"
        }
      ],
      "name": "buy",
      "outputs": [],
      "stateMutability": "payable",
      "type": "function",
      "payable": true
    },
    {
      "inputs": [
        {
          "internalType": "uint256",
          "name": "amountInWei",
          "type": "uint256"
        }
      ],
      "name": "calculateAmount",
      "outputs": [
        {
          "internalType": "uint256",
          "name": "",
          "type": "uint256"
        }
      ],
      "stateMutability": "nonpayable",
      "type": "function"
    },
    {
      "inputs": [
        {
          "internalType": "uint256",
          "name": "amountInWei",
          "type": "uint256"
        }
      ],
      "name": "TestCalculate",
      "outputs": [
        {
          "internalType": "uint256",
          "name": "",
          "type": "uint256"
        }
      ],
      "stateMutability": "view",
      "type": "function",
      "constant": true
    },
    {
      "inputs": [
        {
          "internalType": "uint256",
          "name": "amount",
          "type": "uint256"
        }
      ],
      "name": "withdraw",
      "outputs": [],
      "stateMutability": "nonpayable",
      "type": "function"
    }
  ],
  "bytecode": "0x6080604052600a600255600a600355600160045534801561001f57600080fd5b5060405161059d38038061059d83398101604081905261003e91610071565b6001805433600160a060020a03199182161790915560008054909116600160a060020a039290921691909117905561009f565b600060208284031215610082578081fd5b8151600160a060020a0381168114610098578182fd5b9392505050565b6104ef806100ae6000396000f3fe608060405260043610610071577c010000000000000000000000000000000000000000000000000000000060003504632e1a7d4d811461007c57806348dc58931461009c5780638da5cb5b146100cf578063e285767414610107578063f088d54714610127578063fc0c546a1461013a575b61007a3361015a565b005b34801561008857600080fd5b5061007a6100973660046103eb565b61026d565b3480156100a857600080fd5b506100bc6100b73660046103eb565b6102e9565b6040519081526020015b60405180910390f35b3480156100db57600080fd5b506001546100ef90600160a060020a031681565b604051600160a060020a0390911681526020016100c6565b34801561011357600080fd5b506100bc6101223660046103eb565b61035d565b61007a61013536600461039d565b61015a565b34801561014657600080fd5b506000546100ef90600160a060020a031681565b6000341161016757600080fd5b346000610173826102e9565b6000546040517f40c10f19000000000000000000000000000000000000000000000000000000008152600160a060020a038681166004830152602482018490529293509116906340c10f1990604401602060405180830381600087803b1580156101dc57600080fd5b505af11580156101f0573d6000803e3d6000fd5b505050506040513d601f19601f8201168201806040525081019061021491906103cb565b5060008054604051600160a060020a03909116913480156108fc02929091818181858888f1935050505015801561024f573d6000803e3d6000fd5b5050600160a060020a03909116600090815260056020526040902055565b600154600160a060020a0316331461028457600080fd5b600154600160a060020a03166000908152600560205260409020548111156102ab57600080fd5b600154604051600160a060020a039091169082156108fc029083906000818181858888f193505050501580156102e5573d6000803e3d6000fd5b5050565b600060016064826102fa8584610454565b90506000826103098584610454565b610313919061041b565b905061031f8183610473565b600154600160a060020a031660009081526005602052604081208054929450839290919061034e908490610403565b90915550919695505050505050565b6000600160648261036e8584610454565b905060008261037d8584610454565b610387919061041b565b90506103938183610473565b9695505050505050565b6000602082840312156103ae578081fd5b8135600160a060020a03811681146103c4578182fd5b9392505050565b6000602082840312156103dc578081fd5b815180151581146103c4578182fd5b6000602082840312156103fc578081fd5b5035919050565b600082198211156104165761041661048a565b500190565b60008261044f577f4e487b710000000000000000000000000000000000000000000000000000000081526012600452602481fd5b500490565b600081600019048311821515161561046e5761046e61048a565b500290565b6000828210156104855761048561048a565b500390565b7f4e487b7100000000000000000000000000000000000000000000000000000000600052601160045260246000fdfea2646970667358221220df6f77509b68faffb040e666805faf505c45d4784093bff9fbd1e6a45ab16f0664736f6c63430008040033",
  "immutableReferences": {},
  "source": "interface IERC20 {\r\n    function totalSupply() external view returns (uint256);\r\n\r\n    function balanceOf(address account) external view returns (uint256);\r\n\r\n    function transfer(address recipient, uint256 amount)\r\n        external\r\n        returns (bool);\r\n\r\n    function approve(address spender, uint256 amount) external returns (bool);\r\n\r\n    function transferFrom(\r\n        address sender,\r\n        address recipient,\r\n        uint256 amount\r\n    ) external returns (bool);\r\n\r\n    function mint(address account, uint256 amount) external returns (bool);\r\n\r\n    event Transfer(address indexed from, address indexed to, uint256 value);\r\n\r\n    event Approval(\r\n        address indexed owner,\r\n        address indexed spender,\r\n        uint256 value\r\n    );\r\n}\r\n\r\ncontract Exchange {\r\n    IERC20 public token;\r\n    address public owner;\r\n    uint256 fee_numerator = 10;\r\n    uint256 fee_denumerator = 10;\r\n\r\n    uint256 rate = 1;\r\n\r\n    mapping(address => uint256) balances;\r\n\r\n    constructor(address adresa) public {\r\n        owner = msg.sender;\r\n        token = IERC20(adresa);\r\n    }\r\n\r\n    function buy(address buyer) public payable {\r\n        require(msg.value > 0);\r\n        uint256 amountInWei = msg.value;\r\n        uint256 amount = calculateAmount(amountInWei);\r\n        token.mint(buyer, amount);\r\n        payable(address(token)).transfer(msg.value);\r\n        balances[buyer] = amountInWei;\r\n    }\r\n\r\n    function calculateAmount(uint256 amountInWei) public returns (uint256) {\r\n        uint256 a = 1;\r\n        uint256 b = 100;\r\n        uint256 amount = amountInWei * 1;\r\n        uint256 feeAmount = (amount * a) / b;\r\n        amount -= feeAmount;\r\n        balances[owner] += feeAmount;\r\n        return amount;\r\n    }\r\n\r\n    function TestCalculate(uint256 amountInWei) public view returns (uint256) {\r\n        uint256 a = 1;\r\n        uint256 b = 100;\r\n        uint256 amount = amountInWei * 1;\r\n        uint256 feeAmount = (amount * a) / b;\r\n        amount -= feeAmount;\r\n        return amount;\r\n    }\r\n\r\n    fallback() external payable {\r\n        buy(msg.sender);\r\n    }\r\n\r\n    function withdraw(uint256 amount) public {\r\n        require(msg.sender == owner);\r\n        require(amount <= balances[owner]);\r\n        payable(owner).transfer(amount);\r\n    }\r\n}\r\n",
  "sourcePath": "C:/Users/sakac/Desktop/Exchange/contracts/Exchange.sol",
  "compiler": {
    "name": "solc",
    "version": "0.8.4+commit.c7e474f2.Emscripten.clang"
  },
  "schemaVersion": "3.3.4",
  "updatedAt": "2021-05-02T17:19:26.061Z",
  "networkType": "ethereum",
  "devdoc": {
    "kind": "dev",
    "methods": {},
    "version": 1
  },
  "userdoc": {
    "kind": "user",
    "methods": {},
    "version": 1
  }
}